:020000040800F2
:100000001015002045010008250C0008FD0B000814
:10001000210C000849070008CD2800080000000056
:10002000000000000000000000000000851900082A
:10003000A10A000800000000AD0C0008A51C000883
:100040005F0100085F0100085F0100085F01000810
:100050005F0100085F0100085F0100085F01000800
:100060005F0100085F0100085F0100085F010008F0
:100070005F010008F1070008F90700085F010008A8
:100080005F0100085F0100085F0100085F010008D0
:100090005F0100085F0100085F0100085F010008C0
:1000A0005F010008091D00085F0100085F010008EA
:1000B0005F0100085F0100085F0100085F010008A0
:1000C0005F0100085F0100085F0100085F01000890
:1000D0005F010008052500085F0100085F010008B6
:1000E0005F0100085F0100085F0100085F01000870
:1000F0005F0100085F0100085F0100085F01000860
:100100005F0100085F0100085F0100085F0100084F
:100110005F0100085F0100085F0100085F0100083F
:100120005F0100085F0100085F0100085F0100082F
:10013000DFF80CD000F0F0FA0048004789320008E0
:10014000101500200648804706480047FEE7FEE7F6
:10015000FEE7FEE7FEE7FEE7FEE7FEE7FEE7FEE777
:10016000A91C00083101000840EA01039B0703D0E5
:1001700009E008C9121F08C0042AFAD203E011F8E6
:10018000013B00F8013B521EF9D270472DE9FE4FAA
:10019000804681EA0300C00F0C46009021F0004128
:1001A00023F00045B8EB0200A94105D240462146A4
:1001B00090461C460B46024623F00040104347D0B1
:1001C000270DC7F30A00C3F30A510290401A0190A9
:1001D00040286BDAC3F3130040F4801B009892466A
:1001E00020B10023D2EB030A63EB0B0B01985946B5
:1001F000C0F14002504600F0E8F906460D46504670
:100200005946019A00F000FA10EB08006141002401
:1002100087EA115284EAE7731A4340D0009A62B326
:10022000019A012A4FEA075215DC001B61EB02011B
:100230004FF0004202EA0752CDE90042001C41F5AE
:10024000801132462B4600F000FA03B0BDE8F08F73
:1002500040462146F9E7001B61EB0201001C41F515
:10026000801300185B412018A2F5001747EB03012B
:1002700040EAD570B6196D4111E06D084FEA3606B7
:1002800045EAC0754FEA0752001B61EB0201001CF2
:1002900041F5801149084FEA3000001951413246BA
:1002A0002B4603B0BDE8F04F00F0C0B90098012222
:1002B00040000023D0EB020263EBE073009821467C
:1002C0004FEAE074B8EB000061EB0401E9E783F06A
:1002D00000435BE781F0004158E72DE9FE4F81EADA
:1002E000030404F0004421F0004100944FF0000B9F
:1002F00023F0004350EA01045ED052EA03045BD0CD
:10030000C3F30A54C1F30A552C44A4F2F334019404
:10031000A0FB0254C1F3130141F48011C3F3130392
:1003200043F4801301FB024400FB034E840A970A46
:1003300044EA815447EA8357A4FB076802958D0A73
:1003400005FB07854FEA932C04FB0C542705029DFF
:100350004FEA065847EA1637B5EB08056EEB070C6F
:10036000870E920E47EA811742EA8312A7FB020129
:10037000B6EB0B0164EB00042B0D43EA0C335E1863
:1003800044EB1C50DA465146E7FB0201C5F3130467
:100390004FEA0B3343EA14534FEA0432019C43EA19
:1003A0000603A4F10C040294009CCDE900B400F013
:1003B0004CF903B0BDE8F08F00200146F9E72DE9C4
:1003C000F04D81EA030404F0004B21F0004514468F
:1003D0004FF0000A23F0004150EA050220D054EA11
:1003E00001021DD0C5F30A570246C5F31303C1F33A
:1003F0001300C1F30A5640F4801543F48013A7EBB1
:100400000608101BD64608F2FD3873EB050002D330
:1004100008F1010801E092185B41B8F1000F03DA1E
:1004200000200146BDE8F08D00204FF48011064603
:1004300084460EE0171B73EB050705D3121B63EB15
:10044000050306434CEA010C49084FEA30009218B4
:100450005B4150EA0107EDD152EA030012D082EA73
:10046000040083EA0501084305D0101BAB4106D206
:100470000122002306E000224FF0004302E06FF06B
:10048000010253101AEB06004CEB085110EB0A0066
:1004900041EB0B01BDE8F04D00F0C8B80EB5C10F3F
:1004A00080EAE0700844CA07002140F233438DE837
:1004B0000E000A460B4600F0C8F803B000BD0EB5AA
:1004C00040F2334102910021CDE900110A460B466A
:1004D00000F0BBF803B000BDC1F30A5210B5C1F380
:1004E000130140F2FF3341F480119A4201DA0020F7
:1004F00010BD40F233439A42A2F2334203DC52422F
:1005000000F072F810BD904010BD000030B5041E20
:1005100071F1000404DB4FF00044404264EB010140
:10052000141E73F1000405DB1C464FF000435242D9
:1005300063EB0403994208BF904230BD30B50B46CF
:10054000014600202022012409E021FA02F59D4203
:1005500005D303FA02F5491B04FA02F52844151ED7
:10056000A2F10102F1DC30BD2DE9F05F054600206B
:1005700092469B4688460646814640241BE0284614
:1005800041464746224600F02FF853465A46C01AC5
:10059000914110D311461846224600F016F82D1A44
:1005A00067EB01084F4622460120002100F00DF8BC
:1005B00017EB00094E41201EA4F10104DFDC484680
:1005C00031462A464346BDE8F09F202A04DB203A04
:1005D00000FA02F1002070479140C2F1200320FA96
:1005E00003F3194390407047202A04DB203A21FA94
:1005F00002F00021704721FA02F3D040C2F120023C
:100600009140084319467047202A06DBCB17203A51
:1006100041FA02F043EAE07306E041FA02F3D04007
:10062000C2F12002914008431946704710B5141ECC
:1006300073F1000408DA401C41F1000192185B419B
:100640001A4301D120F0010010BD2DE9F04D924672
:100650009B4611B1B1FA81F202E0B0FA80F2203289
:100660009046FFF7B2FF04460F4640EA0A0041EA0F
:100670000B0153465A46084313D0114653EA010072
:1006800019D0C8F140025046FFF7AEFF05460E46AE
:10069000504659464246FFF798FF084305D00120CF
:1006A00004E020463946BDE8F08D0020054346EAC7
:1006B000E0762C4337430A986305E40AA0EB080070
:1006C0000022FD0A44EA47540A3002D500200146C0
:1006D000E9E7010510196941DDE90845001969419B
:1006E000BDE8F04DA2E7C1F30A52C1F3130140F295
:1006F000FF3341F480119A4202DA0020014670472C
:1007000040F233439A42A2F2334202DC5242FFF7F4
:100710006BBFFFF75ABF0000064C074D06E0E068CC
:1007200040F0010394E8070098471034AC42F6D338
:10073000FFF702FD283300084833000801468A7895
:10074000CB7842EA0320704700BFFEE72DE9F14F66
:1007500082B0002001900298FFF7B1FE804600228F
:100760000A4BFFF7BAFD06460022094BFFF727FEAA
:1007700004460022074BFFF7B0FD8246FFF7ACFEB0
:1007800080B201900198BDE8FE8F00000000F03FAC
:100790000000594000408F4010B504462CB901229A
:1007A0000B21002000F052FF04E000220B21104634
:1007B00000F04CFF10BD704730B502460B460021DB
:1007C00011E012F8015B81EA0521002409E001F43F
:1007D000004020B141F2210080EA410100E04900DF
:1007E000641C082CF3DB581E031EEADA88B230BD05
:1007F00010B500F0E5F910BD10B502F05AF810BDC3
:1008000000200149087070475200002000F080511C
:1008100011B10349086001E00249486070470000D7
:10082000040402400000024021B1026842F00102CB
:10083000026004E002684FF6FE731A4002607047DF
:1008400001684FF6FE7211400160002101604160B5
:100850008160C1604B49884208D14A4908394968DA
:1008600041F00F01474A083A51608AE04549143186
:10087000884208D143490839496841F0F001414AAA
:10088000083A51607DE03F492831884208D13D490E
:100890000839496841F470613A4A083A516070E099
:1008A00038493C31884208D136490839496841F411
:1008B0007041344A083A516063E03249503188420D
:1008C00008D130490839496841F470212D4A083A65
:1008D000516056E02B496431884208D129490839D2
:1008E000496841F47001274A083A516049E02549B6
:1008F0007831884208D123490839496841F070614C
:10090000204A083A51603CE01F49884206D1011F45
:10091000096841F00F01021F116032E01A491431D9
:10092000884208D11849091F096841F0F001164AA8
:10093000121F116025E014492831884208D112495C
:10094000091F096841F470610F4A121F116018E015
:100950000D493C31884208D10B49091F096841F40F
:100960007041094A121F11600BE00749503188425B
:1009700007D10549091F096841F47021024A121F75
:100980001160704708000240080402400146002040
:10099000002201F0805313B1054B1A6801E0054BAA
:1009A0001A6802EA01030BB1012000E00020704741
:1009B00000040240000002401AB103680B430360C8
:1009C00002E003688B430360704710B500220268A1
:1009D00047F6F0739A430C6A8B6823430C692343F0
:1009E0004C6923438C692343CC6923434C6A2343DA
:1009F0008C6A23431A430260CB6843600B688360B0
:100A00004B68C36010BD000000B58DB001210846E1
:100A100000F086FA1F48FFF713FF1F4802901F4897
:100A20000390102004900A2005900020069080205A
:100A300007900020089009900A904FF480500B9086
:100A400000200C9002A91348FFF7BFFF4FF4C060CD
:100A500000F022F90E208DF8040001208DF8050029
:100A600000208DF8060001208DF8070001A800F095
:100A7000DBF8012202210748FFF79EFF012105480C
:100A8000FFF7D2FE012280210348001F01F0F8FD8C
:100A90000DB000BD44000240043801407400002045
:100AA00070472DE9F0410246002500260020002372
:100AB0000024002791F803C00CF00F0591F803C043
:100AC0000CF0100CBCF1000F03D091F802C04CEAFE
:100AD000050591F800C0BCF1000F31D0146800206A
:100AE0002BE04FF0010C0CFA00F3B1F800C00CEA57
:100AF00003069E4220D183004FF00F0C0CFA03F73F
:100B0000BC4305FA03FC4CEA040491F803C0BCF1B1
:100B1000280F06D14FF0010C0CFA00FCC2F814C0EB
:100B20000AE091F803C0BCF1480F05D14FF0010C69
:100B30000CFA00FCC2F810C0401C0828D1D3146085
:100B4000B1F800C0BCF1FF0F34DD546800202EE086
:100B500000F1080C4FF0010808FA0CF3B1F800C0DE
:100B60000CEA03069E4221D183004FF00F0C0CFAD1
:100B700003F7BC4305FA03FC4CEA040491F803C0F4
:100B8000BCF1280F05D100F1080C08FA0CF8C2F8E6
:100B9000148091F803C0BCF1480F07D100F1080C94
:100BA0004FF0010808FA0CF8C2F81080401C082821
:100BB000CED35460BDE8F081416170470161704758
:100BC00010B54FF48060FFF7E1FE30B10120094914
:100BD00008708002FFF71AFE0AE04FF40070FFF77A
:100BE000D5FE28B10120044908704002FFF70EFE2F
:100BF00010BD0000540000205300002002E002A0BD
:100C000001F066FEFBE700000D0ABDF8C8EBD3B2A9
:100C1000BCFEB4EDCEF3D6D0B6CF0D0A0000000076
:100C200000BFFEE77047000070B5002100230F22CF
:100C3000C47804B3154C246804F4E064C4F5E0649B
:100C4000210AC1F10403CA40447804FA03F184780C
:100C50001440214309010E4C0678A155047804F094
:100C60001F050124AC4005786D11AD0005F1E025AC
:100C7000C5F8004109E0047804F01F050124AC40E8
:100C8000044D0678761145F8264070BD0CED00E065
:100C900000E400E080E100E002490143024A116003
:100CA000704700000000FA050CED00E0704710B539
:100CB00004460CB9002010BD2079112803D1002072
:100CC00000F009FA02E0012000F005FA0120F2E745
:100CD00038B5044600250020009004B938BD6946A7
:100CE000204600F0D7F905460DB900200090207984
:100CF00028B99DF80010002000F00EFA1EE02079BF
:100D0000012804D19DF8001000F006FA16E02079C1
:100D1000022804D19DF8001000F0FEF90EE02079C1
:100D2000032804D19DF8001000F0F6F906E02079C0
:100D3000042803D19DF8001000F0EEF90120CDE762
:100D400038B5044600200090002504B938BD694636
:100D5000204600F09FF905460DB90020F6E79DF802
:100D6000000060B920790F2804D10021084600F066
:100D7000A3FA14E00121002000F09EFA0FE09DF894
:100D8000000001280BD120790F2804D10021012077
:100D900000F092FA03E00121084600F08DFA0120EC
:100DA000D4E738B5044600200090002504B938BDCA
:100DB0006946204600F06EF905460DB90020F6E7B9
:100DC0009DF80000642801DD0020F0E720790D285F
:100DD00005D19DF80010002000F0E6FA07E0207928
:100DE0000E2804D19DF80010012000F0DDFA01204A
:100DF000DDE738B5044600250020009004B938BD71
:100E00006946204600F046F905460DB90020F6E790
:100E10002079052805D19DF80010002000F0DAFAAD
:100E20003DE02079062805D19DF80010012000F052
:100E3000D1FA34E02079072805D19DF8001002206E
:100E400000F0C8FA2BE02079082805D19DF80010A1
:100E5000032000F0BFFA22E02079092805D19DF88F
:100E60000010042000F0B6FA19E020790A2805D114
:100E70009DF80010052000F0ADFA10E020790B2855
:100E800005D19DF80010062000F0A4FA07E02079B3
:100E90000C2804D19DF80010072000F09BFA0120D7
:100EA000ADE710B50446204600F00EF908B9002061
:100EB00010BD207914282ED2DFE800F00A0B0C0DAB
:100EC0000E12131415161718191D1E222327282C6D
:100ED00000BF00BF00BF00BF2046FFF7F9FE1CE0C7
:100EE00000BF00BF00BF00BF00BF00BF00BF204663
:100EF000FFF77FFF11E000BF2046FFF752FF0CE035
:100F000000BF2046FFF71CFF07E000BF2046FFF7A9
:100F1000CEFE02E001E00020CAE700BF0120C7E7E3
:100F200029B1064A52690243044B5A6104E0034A5C
:100F300052698243014B5A61704700000010024021
:100F400029B1064AD2690243044BDA6104E0034A3C
:100F5000D2698243014BDA61704700000010024001
:100F600029B1064A12690243044B1A6104E0034A9C
:100F700012698243014B1A61704700000010024061
:100F800029B1064A92690243044B9A6104E0034A7C
:100F900092698243014B9A61704700000010024041
:100FA00029B1064AD2680243044BDA6004E0034ADE
:100FB000D2688243014BDA607047000000100240A3
:100FC00030B500210022002400232D4D6D6805F06E
:100FD0000C0121B1042905D0082923D105E0294DB0
:100FE000056022E0274D05601FE0254D6D6805F482
:100FF0007012234D6D6805F48034022505EB924292
:101000001CB9214D554305600BE01D4D6D6805F47D
:1010100000351DB11C4D5543056002E0194D554387
:10102000056002E0174D056000BF00BF144D6D68FC
:1010300005F0F0010909154D6B5C0568DD40456060
:101040000F4D6D6805F4E061090A104D6B5C456851
:10105000DD4085600A4D6D6805F46051C90A0B4D8D
:101060006B5C4568DD40C560054D6D6805F4404129
:10107000890B074D6B5CC568B5FBF3F5056130BDA9
:101080000010024000127A0000093D001400002008
:101090002400002070B505460E4600242846FFF7C0
:1010A0004DFB04460CB9002070BD22463046A968AD
:1010B000FFF75AF82046F7E710B50249886802F0B2
:1010C000BBF810BD6400002001464878012800D11B
:1010D00070470020FCE710B504462CB901220C2112
:1010E000002000F0B3FA04E000220C21104600F0CA
:1010F000ADFA10BD10B5022305220C21002000F02E
:10110000D1F900220C21104600F0A0FA10BD10B554
:1011100002F066F810BD00002DE9F04104460F46CC
:101120006148007810B96148007801E060480078B3
:1011300005465D48007810B95C48007801E05D48DC
:1011400000780646052C7DD2DFE804F003244566CE
:1011500089000221002000F08BFC0021084600F0ED
:10116000DBFC0221012000F083FC0021012000F0C3
:10117000D3FC0221084600F07BFC0021022000F095
:10118000CBFC0221012000F073FC0021032000F0C1
:10119000C3FC86E00021084600F06AFC29460020D6
:1011A00000F0BAFC0021012000F062FC3146012071
:1011B00000F0B2FC0021022000F05AFC2946022077
:1011C00000F0AAFC0021032000F052FC314603206D
:1011D00000F0A2FC65E00121002000F049FC294656
:1011E000002000F099FC0121084600F041FC314646
:1011F000012000F091FC0121022000F039FC294679
:10120000022000F089FC0121032000F031FC31466E
:10121000032000F081FC44E00121002000F028FCC4
:101220002946002000F078FC0021012000F020FC7D
:101230003146012000F070FC0121022000F018FC72
:10124000294600E02CE0022000F066FC002103208B
:1012500000F00EFC3146032000F05EFC21E000218E
:10126000084600F005FC2946002000F055FC01214D
:10127000084600F0FDFB3146012000F04DFC002146
:10128000022000F0F5FB2946022000F045FC012178
:10129000032000F0EDFB3146032000F03DFC00E0B0
:1012A00000BF00BFBDE8F0812A0000202B00002015
:1012B000280000202900002070B505460C4615B115
:1012C000012D08D103E02046FFF766FA04E020462E
:1012D000FFF771FA00E000BF00BF70BD10B5022338
:1012E00005220B21002000F0DDF800220B21104622
:1012F00000F0ACF910BD10B50223052206211846F6
:1013000000F0D0F8022305220721184600F0CAF8A1
:10131000022305220821184600F0C4F80223052202
:101320000921184600F0BEF801220621022000F033
:101330008DF901220721022000F088F901220821FD
:10134000022000F083F901220921022000F07EF939
:10135000472144F6206000F02BFD002244F6206176
:10136000012000F0EDF9002244F62061022000F097
:10137000E7F9002244F62061032000F0E1F90022A1
:1013800044F62061042000F0DBF910BD70B504467E
:10139000002510222146002000F096FA05460DB9DE
:1013A000012070BD0020FCE70122074B1A7010B12C
:1013B000012806D102E0054A117003E0044A1170C9
:1013C00000E000BF00BF70472A0000202800002076
:1013D0002900002070B504460D46002D01DBB42D18
:1013E00001DD002070BD1CB9284600F001FC28E09A
:1013F000012C03D1284600F033FC22E0022C03D15B
:10140000284600F01FFC1CE0032C03D1284600F006
:10141000E1FB16E0042C03D1284600F0CDFB10E0E0
:10142000052C03D1284600F0FFFB0AE0062C03D16F
:10143000284600F0EBFB04E0072C02D1284600F020
:10144000ADFB0020CEE710B5472144F6206000F048
:1014500027FD4B2244F62061052000F0B1F94B2214
:1014600044F62061062000F0ABF94B2244F62061DF
:10147000072000F0A5F94B2244F62061082000F077
:101480009FF9472144F6206000F092FD4B2244F67C
:101490002061092000F0D2F910BD10B500F00CFA5F
:1014A00010BD00002DE9F84F04460D4616461F46B4
:1014B000DFF87C814FF001094FF0100A4FF0010B6B
:1014C000072C36D2DFE804F0040B121920272E0077
:1014D00001210420FFF754FDDFF854812AE00121A7
:1014E0000820FFF74DFDDFF84C8123E0012110209B
:1014F000FFF746FDDFF840811CE001212020FFF7C7
:101500003FFDDFF8388115E001214020FFF738FD6D
:10151000DFF82C810EE001218020FFF731FDDFF89C
:10152000248107E001210802FFF72AFDDFF8188176
:1015300000E000BF00BF102D39D2DFE805F0080B36
:101540000E1114171A1D202326292C2F32354FF087
:1015500001092DE04FF002092AE04FF0040927E0CD
:101560004FF0080924E04FF0100921E04FF0200966
:101570001EE04FF040091BE04FF0800918E04FF4E7
:10158000807915E04FF4007912E04FF480690FE0A4
:101590004FF400690CE04FF4805909E04FF4005912
:1015A00006E04FF4804903E04FF4004900E000BF3B
:1015B00000BF082E1DD2DFE806F004070A0D101345
:1015C00016194FF0000A15E04FF0040A12E04FF030
:1015D000280A0FE04FF0480A0CE04FF0140A09E027
:1015E0004FF0100A06E04FF01C0A03E04FF0180A13
:1015F00000E000BF00BF27B1012F05D0022F09D1A5
:1016000005E04FF0010B06E04FF0020B03E04FF056
:10161000030B00E000BF00BFADF800908DF803A001
:101620008DF802B069464046FFF73BFABDE8F88FF7
:1016300000080140000C014000100140001401406E
:1016400000180140001C0140002001402DE9F0413C
:1016500004460D461646334F4FF00108072C13D2AF
:10166000DFE804F00406080A0C0E10002D4F0CE011
:101670002D4F0AE02D4F08E02D4F06E02D4F04E0DE
:101680002D4F02E02D4F00E000BF00BF102D39D2DA
:10169000DFE805F0080B0E1114171A1D2023262968
:1016A0002C2F32354FF001082DE04FF002082AE0D0
:1016B0004FF0040827E04FF0080824E04FF010082E
:1016C00021E04FF020081EE04FF040081BE04FF0F3
:1016D000800818E04FF4807815E04FF4007812E0AD
:1016E0004FF480680FE04FF400680CE04FF480582E
:1016F00009E04FF4005806E04FF4804803E04FF44F
:10170000004800E000BF00BF012E04D1414638462A
:10171000FFF754FA04E01EB941463846FFF74CFA89
:10172000BDE8F08100080140000C014000100140BC
:101730000014014000180140001C0140002001403D
:10174000FEB505460C461646A0B2ADF8040047208B
:10175000ADF800000120ADF806000020ADF8020051
:1017600069464FF0804000F027FE4FF47A70B4FBDA
:10177000F0F006FB104087B2012D06D0022D0AD0F2
:10178000032D0ED0042D18D111E039464FF08040C2
:1017900000F009FE12E039464FF0804000F005FEEF
:1017A0000CE039464FF0804000F001FE06E039467B
:1017B0004FF0804000F0FDFD00E000BF00BFFEBD27
:1017C000FEB505460C461646A0B2ADF8040047200B
:1017D000ADF800000120ADF806000020ADF80200D1
:1017E0006946154800F0E8FD4FF47A70B4FBF0F05C
:1017F00006FB104087B2052D06D0062D09D0072D17
:101800000CD0082D14D10EE039460B4800F0CBFD6A
:101810000FE03946084800F0C8FD0AE0394606489E
:1018200000F0C5FD05E03946034800F0C2FD00E0C8
:1018300000BF00BFFEBD000000040040FEB505462D
:101840000C461646A0B2ADF804004720ADF80000E3
:101850000120ADF806000020ADF8020069461548E9
:1018600000F0AAFD4FF47A70B4FBF0F006FB1040D4
:1018700087B2012D06D0022D09D0032D0CD0042DE6
:1018800014D10EE039460B4800F08DFD0FE03946CB
:10189000084800F08AFD0AE03946064800F087FD56
:1018A00005E03946034800F084FD00E000BF00BFBA
:1018B000FEBD00000008004010B54FF4165000F0C7
:1018C000CDFDFFF7A1F810BD2DE9F04781460F4689
:1018D00092460025A84600263C4628480078002865
:1018E0004AD0274880782649C97840EA0126F01D69
:1018F00085B2A91E2248FEF75FFF1FFA80F8681E16
:101900001F49085CFF2801D1012000E0002000EA07
:10191000080068B1A81E1A49085CFF2801D10120FF
:1019200000E0002000EA282010B10020BDE8F08788
:10193000304601F0C3FCA0601148007820701048C8
:10194000407860700E488078A0700D48C078E070D4
:101950000B4800792071A81E0949085C2073681E95
:10196000085C20703246491DA068FEF7FDFB002090
:10197000024908700120D9E70020D7E7480000207D
:10198000D8000020704710B500F002F810BD00002C
:101990000CB50020019000903348006840F480307E
:1019A0003149086000BF3048006800F40030009002
:1019B0000198401C0190009818B90198B0F5A06FEB
:1019C000F1D12948006800F4003010B101200090E6
:1019D00001E0002000900098012843D123480068CE
:1019E00040F01000214908600846006820F003001C
:1019F00008600846006840F0020008601A48406825
:101A0000194948600846406848600846406840F404
:101A1000806048600846406820F47C1048600846B2
:101A2000406840F4E81048600846006840F0807064
:101A3000086000BF0C48006800F000700028F9D072
:101A40000948406820F0030007494860084640689C
:101A500040F00200486000BF0348406800F00C00FE
:101A60000828F9D10CBD00000010024000200240FF
:101A700070B505460C4626480078A84204D1254892
:101A80000078A04200D170BD214805702148047043
:101A900035B1012D11D0022D1CD0032D34D126E0FB
:101AA0002CB9012209210220FFF7D0FD04E0002219
:101AB00009210220FFF7CAFD27E02CB901220821E5
:101AC0000220FFF7C3FD04E0002208210220FFF7F7
:101AD000BDFD1AE02CB9012207210220FFF7B6FD57
:101AE00004E0002207210220FFF7B0FD0DE02CB931
:101AF000012206210220FFF7A9FD04E000220621B1
:101B00000220FFF7A3FD00E000BF00BF00BFBAE75F
:101B10002C0000202D00002070B504460D46002644
:101B20001C480078A04204D11B480078A84200D18C
:101B300070BD18480470184805702846FEF706FE68
:101B4000064634B1012C0BD0022C10D0032C1CD132
:101B500014E0324644F620610120FFF7F1FD15E064
:101B6000324644F620610220FFF7EAFD0EE03246DD
:101B700044F620610320FFF7E3FD07E0324644F618
:101B800020610420FFF7DCFD00E000BF00BF00BFC4
:101B9000CEE700002E0000202F00002070B5044684
:101BA0000025204601F0FEFA05462A4644F620614B
:101BB0000C20FFF705FE70BD70B5044600252046D9
:101BC00001F0F0FA05462A4644F620610920FFF7A5
:101BD000F7FD70BD70B504460025204601F0E2FA1D
:101BE00005462A4644F620610820FFF7E9FD70BD4E
:101BF00070B504460025204601F0D4FA05462A4671
:101C000044F620610520FFF7DBFD70BD70B504468A
:101C10000025204601F0C6FA05462A4644F6206112
:101C20000B20FFF7CDFD70BD70B5044600252046A2
:101C300001F0B8FA05462A4644F620610A20FFF76B
:101C4000BFFD70BD70B504460025204601F0AAFA1C
:101C500005462A4644F620610720FFF7B1FD70BD16
:101C600070B504460025204601F09CFA05462A4638
:101C700044F620610620FFF7A3FD70BD042808D1BB
:101C80004FF0E021096941F004014FF0E0221161B9
:101C900007E04FF0E021096921F004014FF0E02254
:101CA000116170477047000010B51348006840F09C
:101CB00001001149086008464068104908400E4973
:101CC0004860084600680E4908400B49086008460D
:101CD000006820F4802008600846406820F4FE0078
:101CE00048604FF41F008860FFF74DFE4FF0006022
:101CF0000449086010BD0000001002400000FFF819
:101D0000FFFFF6FE08ED00E010B50121214800F0CC
:101D1000D1F921480068401C1F4908600846006846
:101D2000B0F57A7F01D3002008601B48007800F0EE
:101D3000010010B9012019490870174800680521F1
:101D4000B0FBF1F201FB120010B901201449087038
:101D5000114800680A21B0FBF1F201FB120010B932
:101D60000120104908700C4800683221B0FBF1F2E4
:101D700001FB120010B901200B49087006480068E9
:101D80006421B0FBF1F201FB120010B901200749F8
:101D9000087010BD002C01403000002034000020ED
:101DA00035000020360000203700002038000020D9
:101DB00030B589B005460C4601210846FFF7C0F84A
:101DC00001210420FFF7DCF80F20ADF820001820D7
:101DD0008DF8230003208DF8220008A92F48FEF774
:101DE00060FEADF81850ADF814400120ADF81A00AF
:101DF0000020ADF8160005A94FF0804000F0DCFA95
:101E00007020ADF804000120ADF806000020ADF808
:101E10000A00ADF80C0001A94FF0804000F068F90D
:101E200001A94FF0804000F0B9F901A94FF08040BE
:101E300000F014FA01A94FF0804000F069FA012186
:101E4000880700F046F90821C80600F09DF908212E
:101E5000C80600F0F5F90821C80600F04FFA08217D
:101E6000C80600F093FA0121880700F017F96421F1
:101E7000080700F098FA6421080700F096FA642138
:101E8000080700F094FA6421080700F092FA012193
:101E9000880700F012F909B030BD000000080140C9
:101EA00030B589B005460C4601210220FFF748F8FD
:101EB00001210820FFF764F801210420FFF760F8F2
:101EC000C020ADF8200018208DF8230003208DF8E5
:101ED000220008A93348FEF7E4FD0320ADF82000F6
:101EE00018208DF8230003208DF8220008A92E4821
:101EF000FEF7D7FDADF81850ADF814400120ADF84D
:101F00001A000020ADF8160005A9284800F054FA80
:101F10007020ADF804000120ADF806000020ADF8F7
:101F20000A00ADF80C0001A9204800F0E1F801A971
:101F30001E4800F033F901A91C4800F08FF901A9EF
:101F40001A4800F0E5F90121184800F0C2F808210C
:101F5000164800F019F90821144800F071F9082119
:101F6000124800F0CBF90821104800F00FFA0121C7
:101F70000E4800F093F864210C4800F014FA642134
:101F80000A4800F012FA6421084800F010FA6421AF
:101F9000064800F00EFA0121044800F08EF809B05E
:101FA00030BD000000080140000C0140000400406A
:101FB00030B589B005460C4601210420FEF7C0FF6C
:101FC00001210820FEF7DCFF4FF47070ADF820000F
:101FD00018208DF8230003208DF8220008A92D4831
:101FE000FEF75FFDADF81850ADF814400120ADF8D4
:101FF0001A000020ADF8160005A9274800F0DCF90A
:102000007020ADF804000120ADF806000020ADF806
:102010000A00ADF80C0001A91F4800F069F801A9F9
:102020001D4800F0BBF801A91B4800F017F901A9F1
:10203000194800F06DF90121174800F04AF808210D
:10204000154800F0A1F80821134800F0F9F808211C
:10205000114800F053F908210F4800F097F90121C9
:102060000D4800F01BF864210B4800F09CF9642136
:10207000094800F09AF96421074800F098F96421B2
:10208000054800F096F90121034800F016F809B060
:1020900030BD0000000C01400008004021B1028862
:1020A00042F08002028004E002884FF67F731A40FB
:1020B00002807047CA430282704721B1028842F011
:1020C0000102028004E002884FF6FE731A4002808B
:1020D000704731B1B0F8442042F40042A0F84420E7
:1020E00005E0B0F84420C2F30E02A0F84420704787
:1020F00070B5002400220023058C4FF6FE76354093
:102100000584028C8388048B4FF68F752C40B51E96
:102110002C400D882C43751E2A400D892A434D887A
:102120002A43144DA8420BD0134DA84208D0134D9A
:10213000A84205D0124DA84202D0124DA84213D198
:102140004FF6F7752A404D892A434FF6FB752A4012
:102150008D882A434FF6FF652B404FF6FF552B40E5
:102160008D892B43CD892B4383800483CD8885863D
:10217000028470BD002C0140003401400040014049
:1021800000440140004801400A460021018B4FF6FF
:10219000F7731940114301837047000070B50024A4
:1021A00000220023058C4FF6EF7635400584028C23
:1021B0008388048B48F6FF752C404FF6FF452C4072
:1021C0000D884FF6FF7606EA05252C434FF6DF759E
:1021D0002A400D8906EA05152A434D8806EA0515A9
:1021E0002A43154DA84202D0144DA8421DD14FF6E6
:1021F0007F752A404D894FF6FF7606EA05152A437A
:102200004FF6BF752A408D8806EA05152A434FF61A
:10221000FF352B404FF2FF752B408D8906EA85056F
:102220002B43CD8906EA85052B4383800483CD8823
:102230000587028470BD0000002C0140003401407D
:102240000A460021018B4FF2FF7319404FF6FF73CE
:1022500003EA0223194301837047000070B500248C
:1022600000220023058C4FF6FF6635400584028C62
:102270008388848B4FF68F752C404FF6FC752C406D
:102280000D882C434FF6FF552A400D894FF6FF76F7
:1022900006EA05252A434D8806EA05252A43154DF9
:1022A000A84202D0144DA8421DD14FF2FF752A401A
:1022B0004D894FF6FF7606EA05252A434FF6FF358E
:1022C0002A408D8806EA05252A434EF6FF752B40E5
:1022D0004DF6FF752B408D8906EA05152B43CD89F8
:1022E00006EA05152B4383808483CD888587028485
:1022F00070BD0000002C0140003401400A4600215E
:10230000818B4FF6F77319401143818370470000AA
:1023100070B5002200230024058C4EF6FF76354070
:102320000584038C8488828B48F6FF752A404FF61B
:10233000FF452A400D884FF6FF7606EA05252A4319
:102340004DF6FF752B400D8906EA05352B434D8868
:1023500006EA05352B430B4DA84202D00A4DA84290
:1023600008D14BF6FF752C408D894FF6FF7606EAB3
:1023700085152C4384808283CD88A0F84050038447
:1023800070BD0000002C0140003401400A460021CD
:10239000818B4FF2FF7319404FF6FF7303EA02235C
:1023A0001943818370478186704701877047818711
:1023B0007047A0F840107047002202881D4B9842D9
:1023C0000ED01D4B98420BD0B0F1804F08D01B4B64
:1023D000984205D01A4B984202D01A4B984204D129
:1023E0004FF68F731A404B881A43174B984207D009
:1023F000164B984204D04FF6FF431A40CB881A433D
:1024000002808B8883850B8803850A4B98420BD00A
:10241000094B984208D00E4B984205D00D4B98427C
:1024200002D00D4B984201D10B7A0386012383829F
:1024300070470000002C01400034014000040040BF
:1024400000080040000C0040001000400014004054
:1024500000400140004401400048014010B586B0F2
:102460000446012144F20400FEF78AFD234800F0EF
:1024700011F94FF40070ADF8140003208DF8160028
:1024800018208DF8170005A91D48FEF70AFB4FF428
:102490008060ADF8140004208DF8170005A91848D5
:1024A000FEF7FFFA25208DF8000003208DF80100CB
:1024B0008DF8020001208DF803006846FEF7B4FB9A
:1024C00001940020ADF80800ADF80A00ADF80C004A
:1024D000ADF810000C20ADF80E0001A9074800F07F
:1024E00077F9012240F22551044800F04BF901210F
:1024F000024800F0B9F806B010BD000000380140F5
:102500000008014010B540F225514D4800F010F987
:10251000002871D04A4800F0C7F94A494A4A12785F
:10252000885449480078312802DD00204649087067
:1025300045480078401C444908704448007830B150
:10254000012815D0022826D0032875D146E00020A6
:102550003F4908703B480078FF2805D13B48007888
:10256000401C3A49087002E000203749087064E0D6
:1025700000203749087033484078012805D1334896
:102580000078401C3149087004E000202E49087092
:102590002E49087051E000202D4908702A48007823
:1025A00004281AD12748C0782A490870254880781D
:1025B000097841EA0020C01D2749087008460078C4
:1025C000312805DD0020204908702049087004E00A
:1025D0001E480078401C1D4908702EE000201C4950
:1025E0000870194801781C480078401C814221D1AC
:1025F00000201A4908700DE020E0124817490978B8
:10260000405C1749154A1278885414480078401CD9
:1026100012490870114800780F4909788842ECDBAC
:102620000020094908700C49087008490870012009
:102630000C49087001E0FFE700BF00BF10BD0000BB
:1026400000380140A60000204A0000204D00002074
:102650004F000020500000204C00002051000020BE
:10266000D80000204800002021B1828942F40052A5
:10267000828104E082894DF6FF731A40828170479F
:102680001AB1838A0B43838202E0838A8B4383825D
:102690007047000010B504462048844209D101214A
:1026A0008803FEF77DFC00214FF48040FEF778FCA4
:1026B00032E01B48844209D101214804FEF750FC56
:1026C00000214FF40030FEF74BFC25E01548844212
:1026D00009D101218804FEF743FC00214FF480203A
:1026E000FEF73EFC18E01048844209D10121C804DD
:1026F000FEF736FC00214FF40020FEF731FC0BE022
:102700000A48844208D101210805FEF729FC00216E
:102710004FF48010FEF724FC10BD0000003801408B
:102720000044004000480040004C00400050004081
:1027300070B50246002400230025002040F66A16EA
:10274000B14200D100BFC1F3421501F01F030126C1
:1027500006FA03F3012D02D19689334006E0022DDB
:1027600002D1168A334001E0968A33400C120126CA
:1027700006FA04F41688344013B10CB1012000E0CD
:10278000002070BDF0B5034600240026002500207F
:1027900040F66A17B94200D100BF1846C1F342148F
:1027A00001F01F06012707FA06F5012C01D10C30B4
:1027B00004E0022C01D1103000E014301AB1076897
:1027C0002F43076002E00768AF430760F0BD0000D9
:1027D0002DE9F04786B005460E460024A24600BF0C
:1027E000A1460027B08900B100BF2F462C8A4CF6C5
:1027F000FF700440F08804432C82AC894EF6F3103D
:102800000440B08831890843718908430443AC818E
:10281000AC8A4FF6FF400440B0890443AC8201A863
:10282000FEF7CEFB1F48874202D1DDF810A001E081
:10283000DDF80CA0A88900F4004040B10AEBCA0002
:1028400000EB0A1031684900B0FBF1F807E00AEB31
:10285000CA0000EB0A1031688900B0FBF1F864206F
:10286000B8FBF0F004012009642101FB1089A8895C
:1028700000F4004040B1322000EBC900B0FBF1F0A1
:1028800000F00700044308E0322000EB0910642147
:10289000B0FBF1F000F00F0004432C8106B0BDE85E
:1028A000F08700000038014001468888C0F3080026
:1028B000704710B54FF40050FEF768F828B1FDF7E7
:1028C0009FFF4FF40050FDF7A1FF10BD00BFFEE7D2
:1028D0000FB4054B10B503A9044A029800F0CAF8DA
:1028E00010BC5DF814FB00002532000858000020E1
:1028F00002E008C8121F08C1002AFAD170477047C9
:10290000002001E001C1121F002AFBD17047000026
:102910002DE9FF5FDDE90220010DDDF838B002434B
:1029200018D044F61050A1F2FF3141430D140F9816
:10293000012820D0A5EB0B00401C5FEA000A4FF0F5
:102940000004474EDFF81C91A046504616D5CAF148
:10295000000728E00F98012443A2012808D0002195
:1029600000980F9BC0E90021C0E90243BDE8FF9F2A
:102970006FEA0B01F4E7CBF10000DEE7074612E057
:10298000F80707D02246334640464946FDF7A5FCE6
:10299000804689462246334610461946FDF79DFC7F
:1029A00004460E467F10002FEAD1DDE90201BAF19C
:1029B000000F42464B4602DAFDF78FFC01E0FDF7BF
:1029C000FEFC04460E460022284BFDF79FFD03D86F
:1029D0004FF0FF30014607E00022254B20463146EC
:1029E000FDF7D4FBFDF77FFE102409E0002C0ADB85
:1029F0000A220023FDF7B8FD019B30321A55641EF0
:102A000050EA0102F2D1641C019AC4F1110314448A
:102A10000F9A012A03D0012208430DD10AE008438E
:102A200004D000204FF0110B0F9080E7A3EB0B05B3
:102A30006D1E0DE05B4504DD4FF0000205F1010560
:102A400004E003DA4FF00002A5F10105002AECD002
:102A500000980F99C0E90231C0E9004586E70000FF
:102A6000000024400000F03F300000000000F04370
:102A70000000E03F2DE9FF4F95B09B468946064692
:102A800000250FE2252877D100242746F84A0121A6
:102A9000059400E0044316F8013F203B01FA03F0DF
:102AA0001042F7D130782A2811D06FF02F033078F8
:102AB000A0F13002092A16D8059A44F0020402EB6C
:102AC000820203EB42021044761C0590EFE759F8AE
:102AD000042B0592002A03DA504244F40054059076
:102AE00044F00204761C30782E2816D116F8010F17
:102AF00044F004042A280DD06FF02F023078A0F1A2
:102B00003003092B09D807EB870302EB4303C718EF
:102B1000761CF3E759F8047B761C30786C280FD0CC
:102B200006DC4C2817D068280DD06A2814D104E0A0
:102B3000742810D07A280FD10DE044F400140AE074
:102B400044F4801401E044F440147278824202D1CB
:102B500004F58014761C761C307866280BD013DCC4
:102B6000582877D009DC002875D04528F6D04628AB
:102B7000F4D047281AD19DE118E0632835D06428A5
:102B800079D0652812D195E1702873D008DC6728C8
:102B9000F1D069286FD06E280DD06F2806D1B5E02E
:102BA00073282CD0752875D0782874D05A46179978
:102BB00090476D1C75E1C4F30250022809D0032828
:102BC0000DD0D9F8001004280DD00D6009F10409CA
:102BD00067E1D9F80010EA17C1E90052F6E7D9F821
:102BE00000100D80F2E70D70F0E719F8041B8DF866
:102BF000001000208DF80100EA46012003E059F89A
:102C000004AB4FF0FF3061074FF0000102D40DE03C
:102C100008F101018846B9420FDA8045F8DB1AF85D
:102C200008100029F4D108E008F10101884681422A
:102C3000FADB1AF808100029F6D105985B46A0EBDC
:102C4000080721463846179A00F094FA284400EB0A
:102C5000080507E04DE029E10DE01AF8010B5A469E
:102C600017999047B8F10108F7D25B4621463846DC
:102C7000179A13E142E00A220092C4F302524FF085
:102C8000000A022A08D059F804CB032A4FEAEC7153
:102C90000AD00DE029E02AE009F1070121F007023E
:102CA000F2E802C1914609E00FFA8CFC4FEAEC71A0
:102CB000042A03D14FFA8CFC4FEAEC71002907DAA1
:102CC0000A460021DCF1000C61EB02012D2202E03A
:102CD000220504D52B228DF80420012203E0E2070F
:102CE00001D02022F7E7904659E00A2102E01022A5
:102CF0000DE010214FF0000A00910BE010224FF080
:102D0000000A44F004040827009203E008224FF070
:102D1000000A0092C4F30252022A05D059F804CBEB
:102D20000021032A08D009E009F1070121F0070278
:102D3000F2E802C1914605E01FFA8CFC042A01D199
:102D40000CF0FF0C4FF00008220728D5702806D0A1
:102D5000009B83F0100353EA0A0305D00EE04022E3
:102D60008DF80420012208E05CEA010206D030223E
:102D70008DF804208DF8050002229046009B83F018
:102D8000080353EA0A030AD15CEA010201D162078F
:102D900005D530228DF804204FF001087F1E5828F9
:102DA00004D034A003900EA802900DE036A0F9E7FD
:102DB00053466046009AFDF7D7FB84460398825C31
:102DC0000298401E029002705CEA0100F0D1029865
:102DD00006A9081A00F1200A600702D524F48034FD
:102DE00000E00127574502DDA7EB0A0000E00020C4
:102DF00000EB0A01009005984144401A0590E00359
:102E000006D45B462146179A059800F0B3F90544AD
:102E1000002706E001A85A46C05D179990476D1C2F
:102E20007F1C4745F6DBE0030CD55B462146179A2D
:102E3000059800F09FF9054404E030205A461799A0
:102E400090476D1C0099481E00900029F5DC08E0B1
:102E5000029802995A460078491C029117999047A6
:102E60006D1CBAF10001AAF1010AF1DC65E1000074
:102E70000928010030313233343536373839616250
:102E80006364656600000000303132333435363714
:102E900038394142434445460000000000F058F9EB
:102EA0000544761C307800287FF4ECAD19B0284634
:102EB000BDE8F08F620700D4062709F1070222F06F
:102EC000070CFCE80223E14603F000485FEA080C27
:102ED00002D00FF2702C0DE05FEA045C02D50FF215
:102EE000682C07E05FEAC47C02D00FF2602C01E09E
:102EF000AFF2700C4FF0FF3823F00043CDF850C014
:102F000065280CD006DC452809D046281DD0472866
:102F10003DD13DE0662818D067287ED138E00021F9
:102F2000112F01DB112000E0781CCDE9000106A97A
:102F30000EA8FFF7EDFCDDE90F010E9A03910021C9
:102F4000009207F1010A04914DE04FF00040009714
:102F5000CDE9011006A90EA8FFF7DAFCDDE90F02A2
:102F600003920E9B11990022DDF80CA000930492AD
:102F700011B9791C00EB010AB7EB0A0004D4C0F1C7
:102F8000FF3007F1010A0490AAEB0700019044E02A
:102F9000012F00DA01270021112F01DD112000E0AF
:102FA0003846CDE9000106A90EA8FFF7B1FCDDE91E
:102FB0000F010E9A0391002104910092BA46210755
:102FC0000CD40399514500DA8A46BAF1010F05DDA8
:102FD000009AAAF10101515C302908D0B84202DA06
:102FE00010F1040F06DA0121CDE9011015E0AAF174
:102FF0000101E9E7002805DC049901440491AAEBEA
:10300000000102E0411C514500DD8A460499401A46
:10301000401C01904FF000400290200704D401981A
:10302000504501DBCDF8048000208DF84F00029858
:103030000DF14F07B0F1004F25D02B200E900298D4
:103040004FF0020800280CDA404202902D200E902A
:1030500007E00A210298FDF771FA3031029007F873
:10306000011DB8F10001A8F10108F2DC0298002866
:10307000EFD1791E0E980870307800F0200040F0F3
:10308000450007F8020D12A8C01B00F107081498AC
:10309000007800B1012000EB0A01019801EBE0711A
:1030A00005984144401A401E0590E00306D45B4653
:1030B0002146179A059800F05DF8054414980078A9
:1030C00018B15A46179990476D1CE00324D55B460A
:1030D0002146179A059800F04DF805441CE0049825
:1030E000002807DBDDE90301884203DD0098405C2E
:1030F000179901E0179930205A469047049805F136
:103100000105401C04900198401E019004D12E201E
:103110005A46179990476D1CBAF10001AAF1010AAD
:10312000DDDC05E017F8010B5A46179990476D1C36
:10313000B8F10001A8F10108F4DC5B462146179ABA
:103140000598ABE62D0000002B00000020000000D9
:103150002DE9F041044600251E461746880404D494
:1031600005E039462020B0476D1C641EF9D528467D
:10317000BDE8F0812DE9F041044600251E46904649
:10318000C80301D5302700E02027880404D505E0D6
:1031900041463846B0476D1C641EF9D52846BDE847
:1031A000F08100002DE9F05F82464FF0000B5046A1
:1031B000FDF774F980460022074BFDF78EF80646AE
:1031C0000022064BFCF7E2FF0446FDF785F900F00C
:1031D000FF0B5846BDE8F09F0000E03F00804140F3
:1031E00010B56FF00400FEF749FD09480068094971
:1031F000B0FBF1F008490870084600784FF47A7186
:1032000048430649086001200549086010BD0000D8
:103210000000002000127A003C0000204000002046
:103220004400002038B504468DF8000069460320AC
:10323000ABBE204638BD000010B5002821D0114B90
:103240000022001F196803E0814203D80A4649683A
:103250000029F9D152B11368841A9C4204D1006844
:1032600018441060104602E0506000E0186039B168
:1032700002680B1A934203D10B681A440260496832
:10328000416010BD5C000020FDF741FFFDF732FFFB
:10329000FEF724F8FEF72FF8FEF7D5F8FEF7FDF855
:1032A00008E00548FEF772F820B90348FDF7F9FD7C
:1032B000FDF702FFF5E7000064000020F0B50B30D9
:1032C000154D20F007010024144A0FE003688B42DB
:1032D0000BD38B4205D95E1A43184768C3E90067D0
:1032E00000E04368136002C004E0021D106800287B
:1032F000ECD12046002802D1286808B10020F0BD9A
:10330000064A07481060074A121A22F00702C0E96D
:10331000002401202860D7E7600000205C00002026
:103320001401002010110020483300080000002084
:1033300064000000F0280008AC330008640000209E
:10334000AC1400000029000800A24A04000000009C
:103350000000000001020304060708090000000045
:103360000102030401020304060708090204060817
:103370000000001E04020000000000000000000029
:10338000000000000000000000000000000000003D
:10339000000000000000000000000000000000002D
:0C33A00000000000000000000000000021
:0400000508000131BD
:00000001FF
